{
  "contractName": "Auction",
  "abi": [
    {
      "inputs": [
        {
          "internalType": "uint256",
          "name": "_biddingTime",
          "type": "uint256"
        },
        {
          "internalType": "uint256",
          "name": "_revealTime",
          "type": "uint256"
        },
        {
          "internalType": "address payable",
          "name": "_owner",
          "type": "address"
        },
        {
          "internalType": "uint256",
          "name": "_minimumBid",
          "type": "uint256"
        }
      ],
      "stateMutability": "nonpayable",
      "type": "constructor"
    },
    {
      "anonymous": false,
      "inputs": [
        {
          "indexed": false,
          "internalType": "address",
          "name": "winner",
          "type": "address"
        },
        {
          "indexed": false,
          "internalType": "uint256",
          "name": "amount",
          "type": "uint256"
        }
      ],
      "name": "AuctionEnded",
      "type": "event"
    },
    {
      "anonymous": false,
      "inputs": [
        {
          "indexed": false,
          "internalType": "address",
          "name": "bidder",
          "type": "address"
        },
        {
          "indexed": false,
          "internalType": "uint256",
          "name": "amount",
          "type": "uint256"
        }
      ],
      "name": "roundEnded",
      "type": "event"
    },
    {
      "inputs": [
        {
          "internalType": "uint256",
          "name": "",
          "type": "uint256"
        }
      ],
      "name": "addressIndices",
      "outputs": [
        {
          "internalType": "address",
          "name": "",
          "type": "address"
        }
      ],
      "stateMutability": "view",
      "type": "function",
      "constant": true
    },
    {
      "inputs": [],
      "name": "auctioneer",
      "outputs": [
        {
          "internalType": "address",
          "name": "",
          "type": "address"
        }
      ],
      "stateMutability": "view",
      "type": "function",
      "constant": true
    },
    {
      "inputs": [
        {
          "internalType": "address",
          "name": "",
          "type": "address"
        },
        {
          "internalType": "uint256",
          "name": "",
          "type": "uint256"
        }
      ],
      "name": "bids",
      "outputs": [
        {
          "internalType": "bytes32",
          "name": "blindedBid",
          "type": "bytes32"
        },
        {
          "internalType": "uint256",
          "name": "deposit",
          "type": "uint256"
        }
      ],
      "stateMutability": "view",
      "type": "function",
      "constant": true
    },
    {
      "inputs": [],
      "name": "cancelled",
      "outputs": [
        {
          "internalType": "bool",
          "name": "",
          "type": "bool"
        }
      ],
      "stateMutability": "view",
      "type": "function",
      "constant": true
    },
    {
      "inputs": [],
      "name": "currentRoundUsersCount",
      "outputs": [
        {
          "internalType": "uint256",
          "name": "",
          "type": "uint256"
        }
      ],
      "stateMutability": "view",
      "type": "function",
      "constant": true
    },
    {
      "inputs": [],
      "name": "ended",
      "outputs": [
        {
          "internalType": "bool",
          "name": "",
          "type": "bool"
        }
      ],
      "stateMutability": "view",
      "type": "function",
      "constant": true
    },
    {
      "inputs": [],
      "name": "highestBid",
      "outputs": [
        {
          "internalType": "uint256",
          "name": "",
          "type": "uint256"
        }
      ],
      "stateMutability": "view",
      "type": "function",
      "constant": true
    },
    {
      "inputs": [],
      "name": "highestBidder",
      "outputs": [
        {
          "internalType": "address",
          "name": "",
          "type": "address"
        }
      ],
      "stateMutability": "view",
      "type": "function",
      "constant": true
    },
    {
      "inputs": [],
      "name": "minimumBid",
      "outputs": [
        {
          "internalType": "uint256",
          "name": "",
          "type": "uint256"
        }
      ],
      "stateMutability": "view",
      "type": "function",
      "constant": true
    },
    {
      "inputs": [],
      "name": "owner",
      "outputs": [
        {
          "internalType": "address payable",
          "name": "",
          "type": "address"
        }
      ],
      "stateMutability": "view",
      "type": "function",
      "constant": true
    },
    {
      "inputs": [
        {
          "internalType": "address",
          "name": "",
          "type": "address"
        }
      ],
      "name": "previousBids",
      "outputs": [
        {
          "internalType": "uint256",
          "name": "",
          "type": "uint256"
        }
      ],
      "stateMutability": "view",
      "type": "function",
      "constant": true
    },
    {
      "inputs": [],
      "name": "previousRoundUsersCount",
      "outputs": [
        {
          "internalType": "uint256",
          "name": "",
          "type": "uint256"
        }
      ],
      "stateMutability": "view",
      "type": "function",
      "constant": true
    },
    {
      "inputs": [
        {
          "internalType": "uint256",
          "name": "value",
          "type": "uint256"
        }
      ],
      "name": "generateBlindedBidBytes32",
      "outputs": [
        {
          "internalType": "bytes32",
          "name": "",
          "type": "bytes32"
        }
      ],
      "stateMutability": "view",
      "type": "function",
      "constant": true
    },
    {
      "inputs": [
        {
          "internalType": "bytes32",
          "name": "_blindedBid",
          "type": "bytes32"
        }
      ],
      "name": "bid",
      "outputs": [],
      "stateMutability": "payable",
      "type": "function",
      "payable": true
    },
    {
      "inputs": [],
      "name": "reveal",
      "outputs": [],
      "stateMutability": "nonpayable",
      "type": "function"
    },
    {
      "inputs": [],
      "name": "firstRoundEnd",
      "outputs": [
        {
          "internalType": "uint256",
          "name": "_minimumBid",
          "type": "uint256"
        }
      ],
      "stateMutability": "nonpayable",
      "type": "function"
    },
    {
      "inputs": [],
      "name": "roundEnd",
      "outputs": [],
      "stateMutability": "nonpayable",
      "type": "function"
    },
    {
      "inputs": [],
      "name": "withdraw",
      "outputs": [
        {
          "internalType": "bool",
          "name": "success",
          "type": "bool"
        }
      ],
      "stateMutability": "nonpayable",
      "type": "function"
    },
    {
      "inputs": [],
      "name": "cancelAuction",
      "outputs": [],
      "stateMutability": "nonpayable",
      "type": "function"
    }
  ],
  "bytecode": "0x6080604052600160045560006012553480156200001b57600080fd5b5060405162001833380380620018338339818101604052810190620000419190620000eb565b81600860006101000a81548173ffffffffffffffffffffffffffffffffffffffff021916908373ffffffffffffffffffffffffffffffffffffffff1602179055508060008190555083426200009791906200015d565b600a8190555082600a54620000ad91906200015d565b600b819055505050505062000260565b600081519050620000ce816200022c565b92915050565b600081519050620000e58162000246565b92915050565b6000806000806080858703121562000108576200010762000227565b5b60006200011887828801620000d4565b94505060206200012b87828801620000d4565b93505060406200013e87828801620000bd565b92505060606200015187828801620000d4565b91505092959194509250565b60006200016a82620001ee565b91506200017783620001ee565b9250827fffffffffffffffffffffffffffffffffffffffffffffffffffffffffffffffff03821115620001af57620001ae620001f8565b5b828201905092915050565b6000620001c782620001ce565b9050919050565b600073ffffffffffffffffffffffffffffffffffffffff82169050919050565b6000819050919050565b7f4e487b7100000000000000000000000000000000000000000000000000000000600052601160045260246000fd5b600080fd5b6200023781620001ba565b81146200024357600080fd5b50565b6200025181620001ee565b81146200025d57600080fd5b50565b6115c380620002706000396000f3fe6080604052600436106101145760003560e01c80638da5cb5b116100a0578063a475b5dd11610064578063a475b5dd14610387578063a7df8c571461039e578063c02e580e146103db578063d3a86386146103f2578063d57bde791461041d57610114565b80638da5cb5b146102d35780638fa8b790146102fe57806391f9015714610315578063957bb1e0146103405780639a82a09a1461035c57610114565b806312fa6feb116100e757806312fa6feb146101d85780632a1a985b146102035780633ccfd60b146102405780635ec2c7bf1461026b578063874375441461029657610114565b806301495c1c1461011957806301988f70146101575780630805724e146101825780630fc5701f146101ad575b600080fd5b34801561012557600080fd5b50610140600480360381019061013b9190611184565b610448565b60405161014e92919061132f565b60405180910390f35b34801561016357600080fd5b5061016c610489565b6040516101799190611358565b60405180910390f35b34801561018e57600080fd5b506101976106b5565b6040516101a49190611358565b60405180910390f35b3480156101b957600080fd5b506101c26106bb565b6040516101cf9190611358565b60405180910390f35b3480156101e457600080fd5b506101ed6106c1565b6040516101fa91906112f9565b60405180910390f35b34801561020f57600080fd5b5061022a600480360381019061022591906111f1565b6106d4565b6040516102379190611314565b60405180910390f35b34801561024c57600080fd5b50610255610706565b60405161026291906112f9565b60405180910390f35b34801561027757600080fd5b50610280610855565b60405161028d91906112c3565b60405180910390f35b3480156102a257600080fd5b506102bd60048036038101906102b89190611157565b61087b565b6040516102ca9190611358565b60405180910390f35b3480156102df57600080fd5b506102e8610893565b6040516102f591906112de565b60405180910390f35b34801561030a57600080fd5b506103136108b9565b005b34801561032157600080fd5b5061032a61094a565b60405161033791906112c3565b60405180910390f35b61035a600480360381019061035591906111c4565b610970565b005b34801561036857600080fd5b50610371610a16565b60405161037e91906112f9565b60405180910390f35b34801561039357600080fd5b5061039c610a29565b005b3480156103aa57600080fd5b506103c560048036038101906103c091906111f1565b610c2d565b6040516103d291906112c3565b60405180910390f35b3480156103e757600080fd5b506103f0610c6c565b005b3480156103fe57600080fd5b5061040761110c565b6040516104149190611358565b60405180910390f35b34801561042957600080fd5b50610432611112565b60405161043f9190611358565b60405180910390f35b600f602052816000526040600020818154811061046457600080fd5b9060005260206000209060020201600091509150508060000154908060010154905082565b6000600b5480421161049a57600080fd5b600960009054906101000a900473ffffffffffffffffffffffffffffffffffffffff1673ffffffffffffffffffffffffffffffffffffffff163373ffffffffffffffffffffffffffffffffffffffff16146104f457600080fd5b60005b6005805490508110156106a257601254600d60006005848154811061051f5761051e611507565b5b9060005260206000200160009054906101000a900473ffffffffffffffffffffffffffffffffffffffff1673ffffffffffffffffffffffffffffffffffffffff1673ffffffffffffffffffffffffffffffffffffffff16815260200190815260200160002054111561068f57600d6000600583815481106105a3576105a2611507565b5b9060005260206000200160009054906101000a900473ffffffffffffffffffffffffffffffffffffffff1673ffffffffffffffffffffffffffffffffffffffff1673ffffffffffffffffffffffffffffffffffffffff168152602001908152602001600020546012819055506005818154811061062357610622611507565b5b9060005260206000200160009054906101000a900473ffffffffffffffffffffffffffffffffffffffff16601160006101000a81548173ffffffffffffffffffffffffffffffffffffffff021916908373ffffffffffffffffffffffffffffffffffffffff1602179055505b808061069a90611461565b9150506104f7565b5060125460008190555060005491505090565b60035481565b60025481565b600c60009054906101000a900460ff1681565b600081336040516020016106e9929190611297565b604051602081830303815290604052805190602001209050919050565b6000601160009054906101000a900473ffffffffffffffffffffffffffffffffffffffff1673ffffffffffffffffffffffffffffffffffffffff163373ffffffffffffffffffffffffffffffffffffffff16141561076357600080fd5b600080339150601060008373ffffffffffffffffffffffffffffffffffffffff1673ffffffffffffffffffffffffffffffffffffffff168152602001908152602001600020549050600081111561084b576000601060008473ffffffffffffffffffffffffffffffffffffffff1673ffffffffffffffffffffffffffffffffffffffff168152602001908152602001600020819055508173ffffffffffffffffffffffffffffffffffffffff166108fc829081150290604051600060405180830381858888f1935050505015801561083f573d6000803e3d6000fd5b50600192505050610852565b6000925050505b90565b600960009054906101000a900473ffffffffffffffffffffffffffffffffffffffff1681565b600d6020528060005260406000206000915090505481565b600860009054906101000a900473ffffffffffffffffffffffffffffffffffffffff1681565b600c60019054906101000a900460ff16156108d357600080fd5b600960009054906101000a900473ffffffffffffffffffffffffffffffffffffffff1673ffffffffffffffffffffffffffffffffffffffff163373ffffffffffffffffffffffffffffffffffffffff161461092d57600080fd5b6001600c60016101000a81548160ff021916908315150217905550565b601160009054906101000a900473ffffffffffffffffffffffffffffffffffffffff1681565b600a5480421061097f57600080fd5b600f60003373ffffffffffffffffffffffffffffffffffffffff1673ffffffffffffffffffffffffffffffffffffffff1681526020019081526020016000206040518060400160405280848152602001348152509080600181540180825580915050600190039060005260206000209060020201600090919091909150600082015181600001556020820151816001015550505050565b600c60019054906101000a900460ff1681565b600a54804211610a3857600080fd5b600b54804210610a4757600080fd5b6000600f60003373ffffffffffffffffffffffffffffffffffffffff1673ffffffffffffffffffffffffffffffffffffffff1681526020019081526020016000208054905090506004548114610a9c57600080fd5b600080600f60003373ffffffffffffffffffffffffffffffffffffffff1673ffffffffffffffffffffffffffffffffffffffff168152602001908152602001600020600184610aeb91906113c9565b81548110610afc57610afb611507565b5b9060005260206000209060020201905060008033604051602001610b21929190611297565b60405160208183030381529060405280519060200120826000015414610b4657600080fd5b600080600090505b85811015610bdf576000600f60003373ffffffffffffffffffffffffffffffffffffffff1673ffffffffffffffffffffffffffffffffffffffff1681526020019081526020016000208281548110610ba957610ba8611507565b5b90600052602060002090600202019050806001015486610bc99190611373565b9550508080610bd790611461565b915050610b4e565b5083601060003373ffffffffffffffffffffffffffffffffffffffff1673ffffffffffffffffffffffffffffffffffffffff1681526020019081526020016000208190555050505050505050565b60018181548110610c3d57600080fd5b906000526020600020016000915054906101000a900473ffffffffffffffffffffffffffffffffffffffff1681565b600b54804211610c7b57600080fd5b600960009054906101000a900473ffffffffffffffffffffffffffffffffffffffff1673ffffffffffffffffffffffffffffffffffffffff163373ffffffffffffffffffffffffffffffffffffffff1614610cd557600080fd5b60046000815480929190610ce890611461565b919050555060005b600580549050811015610fc557600d600060058381548110610d1557610d14611507565b5b9060005260206000200160009054906101000a900473ffffffffffffffffffffffffffffffffffffffff1673ffffffffffffffffffffffffffffffffffffffff1673ffffffffffffffffffffffffffffffffffffffff16815260200190815260200160002054600e600060058481548110610d9357610d92611507565b5b9060005260206000200160009054906101000a900473ffffffffffffffffffffffffffffffffffffffff1673ffffffffffffffffffffffffffffffffffffffff1673ffffffffffffffffffffffffffffffffffffffff1681526020019081526020016000206000828254610e079190611373565b92505081905550600d600060058381548110610e2657610e25611507565b5b9060005260206000200160009054906101000a900473ffffffffffffffffffffffffffffffffffffffff1673ffffffffffffffffffffffffffffffffffffffff1673ffffffffffffffffffffffffffffffffffffffff16815260200190815260200160002054600e600060058481548110610ea457610ea3611507565b5b9060005260206000200160009054906101000a900473ffffffffffffffffffffffffffffffffffffffff1673ffffffffffffffffffffffffffffffffffffffff1673ffffffffffffffffffffffffffffffffffffffff168152602001908152602001600020541415610fb257600660058281548110610f2657610f25611507565b5b9060005260206000200160009054906101000a900473ffffffffffffffffffffffffffffffffffffffff169080600181540180825580915050600190039060005260206000200160009091909190916101000a81548173ffffffffffffffffffffffffffffffffffffffff021916908373ffffffffffffffffffffffffffffffffffffffff1602179055505b8080610fbd90611461565b915050610cf0565b5060005b6005805490508110156110ff5760005b6006805490508110156110eb5760068181548110610ffa57610ff9611507565b5b9060005260206000200160009054906101000a900473ffffffffffffffffffffffffffffffffffffffff1673ffffffffffffffffffffffffffffffffffffffff166005838154811061104f5761104e611507565b5b9060005260206000200160009054906101000a900473ffffffffffffffffffffffffffffffffffffffff1673ffffffffffffffffffffffffffffffffffffffff1614156110d857600582815481106110aa576110a9611507565b5b9060005260206000200160006101000a81549073ffffffffffffffffffffffffffffffffffffffff02191690555b80806110e390611461565b915050610fd9565b5080806110f790611461565b915050610fc9565b5060125460008190555050565b60005481565b60125481565b60008135905061112781611548565b92915050565b60008135905061113c8161155f565b92915050565b60008135905061115181611576565b92915050565b60006020828403121561116d5761116c611536565b5b600061117b84828501611118565b91505092915050565b6000806040838503121561119b5761119a611536565b5b60006111a985828601611118565b92505060206111ba85828601611142565b9150509250929050565b6000602082840312156111da576111d9611536565b5b60006111e88482850161112d565b91505092915050565b60006020828403121561120757611206611536565b5b600061121584828501611142565b91505092915050565b6112278161140f565b82525050565b611236816113fd565b82525050565b61124d611248826113fd565b6114aa565b82525050565b61125c81611421565b82525050565b61126b8161142d565b82525050565b61127a81611457565b82525050565b61129161128c82611457565b6114ce565b82525050565b60006112a38285611280565b6020820191506112b3828461123c565b6014820191508190509392505050565b60006020820190506112d8600083018461122d565b92915050565b60006020820190506112f3600083018461121e565b92915050565b600060208201905061130e6000830184611253565b92915050565b60006020820190506113296000830184611262565b92915050565b60006040820190506113446000830185611262565b6113516020830184611271565b9392505050565b600060208201905061136d6000830184611271565b92915050565b600061137e82611457565b915061138983611457565b9250827fffffffffffffffffffffffffffffffffffffffffffffffffffffffffffffffff038211156113be576113bd6114d8565b5b828201905092915050565b60006113d482611457565b91506113df83611457565b9250828210156113f2576113f16114d8565b5b828203905092915050565b600061140882611437565b9050919050565b600061141a82611437565b9050919050565b60008115159050919050565b6000819050919050565b600073ffffffffffffffffffffffffffffffffffffffff82169050919050565b6000819050919050565b600061146c82611457565b91507fffffffffffffffffffffffffffffffffffffffffffffffffffffffffffffffff82141561149f5761149e6114d8565b5b600182019050919050565b60006114b5826114bc565b9050919050565b60006114c78261153b565b9050919050565b6000819050919050565b7f4e487b7100000000000000000000000000000000000000000000000000000000600052601160045260246000fd5b7f4e487b7100000000000000000000000000000000000000000000000000000000600052603260045260246000fd5b600080fd5b60008160601b9050919050565b611551816113fd565b811461155c57600080fd5b50565b6115688161142d565b811461157357600080fd5b50565b61157f81611457565b811461158a57600080fd5b5056fea2646970667358221220c2bf6e240d7c3d37669f6a6eeb6ed0562ff81522793f96522b8331f56f970bf664736f6c63430008060033",
  "immutableReferences": {},
  "source": "// SPDX-License-Identifier: MIT\npragma solidity >=0.7.0 <0.9.0;\n\ncontract Auction {\n    //VARIABLES\n    uint256 public minimumBid;\n    address[] public addressIndices;\n    uint256 public previousRoundUsersCount; //To count the number of active users from the previous round (also used in the first round)\n\n    uint256 public currentRoundUsersCount;\n    uint256 roundNumber = 1;\n\n    // Arrays to store both addresses and value of bids\n    address[] addresses;\n    address[] withdrawnUsers;\n    uint256[] bidValues;\n\n    struct Bid {\n        bytes32 blindedBid;\n        uint256 deposit;\n    }\n\n    address payable public owner;\n    address public auctioneer;\n\n    uint256 biddingEnd;\n    uint256 revealEnd;\n\n    bool public ended;\n    bool public cancelled;\n    bool ownerHasWithdrawn;\n\n    mapping(address => uint256) public previousBids;\n    mapping(address => uint256) currentRoundBid; // to store the incremental bid passed in the current round\n\n    mapping(address => Bid[]) public bids;\n\n    mapping(address => uint256) pendingReturns;\n\n    address public highestBidder;\n    uint256 public highestBid = 0;\n    // uint256 public highestBindingBid; // equal to second highest bid? Not needed as highest bidder isnt allowed to withdraw\n\n    // MODIFIERS\n\n    modifier onlyBefore(uint256 _time) {\n        require(block.timestamp < _time);\n        _;\n    }\n\n    modifier onlyAfter(uint256 _time) {\n        require(block.timestamp > _time);\n        _;\n    }\n\n    modifier onlyAuctioneer() {\n        require(msg.sender == auctioneer);\n        _;\n    }\n\n    modifier onlyOwner() {\n        require(msg.sender == owner);\n        _;\n    }\n\n    modifier onlyNotOwner() {\n        require(msg.sender != owner);\n        _;\n    }\n\n    modifier onlyNotCancelled() {\n        require(!cancelled);\n        _;\n    }\n\n    modifier onlyNotHighestBidder() {\n        require(msg.sender != highestBidder);\n        _;\n    }\n\n    // EVENTS\n    event roundEnded(address bidder, uint256 amount);\n    event AuctionEnded(address winner, uint256 amount);\n\n    //FUNCTIONS\n\n    constructor(\n        uint256 _biddingTime,\n        uint256 _revealTime,\n        address payable _owner,\n        uint256 _minimumBid\n    ) {\n        owner = _owner;\n        minimumBid = _minimumBid;\n        biddingEnd = block.timestamp + _biddingTime;\n        revealEnd = biddingEnd + _revealTime;\n    }\n\n    function generateBlindedBidBytes32(uint256 value)\n        public\n        view\n        returns (bytes32)\n    {\n        return keccak256(abi.encodePacked(value, msg.sender)); // taking the user address as the cryptographic salt\n        // THIS FUNCTION IS COMPLETE\n    }\n\n    function bid(bytes32 _blindedBid) public payable onlyBefore(biddingEnd) {\n        bids[msg.sender].push(\n            Bid({blindedBid: _blindedBid, deposit: msg.value})\n        );\n    }\n\n    function reveal() public onlyAfter(biddingEnd) onlyBefore(revealEnd) {\n        // THIS FUNCTION IS INCOMPLETE\n        uint256 length = bids[msg.sender].length;\n        require(length == roundNumber);\n        \n        uint256 totalBidValue;\n        Bid storage bidToCheck = bids[msg.sender][length - 1];\n      uint256 value;\n      require(\n            bidToCheck.blindedBid ==\n                keccak256(abi.encodePacked(value, msg.sender))\n        );\n        uint256 random;\n        for (uint256 i = 0; i < length; i++) {\n            Bid storage roundBid = bids[msg.sender][i];\n            totalBidValue += roundBid.deposit;\n        }\n        pendingReturns[msg.sender] = totalBidValue;\n    }\n\n    function placeBid(address bidder, uint256 value)\n        internal\n        onlyNotCancelled\n        onlyNotOwner\n        returns (bool success)\n    {\n        //  WORK ON THIS FUNCTION - IT IS INCOMPLETE\n\n        uint256 pastBids = pendingReturns[bidder]; //pendingReturns[bidder] contains the value of the past bids made by the user\n        uint256 totalBid = pastBids + value;\n        if (totalBid <= minimumBid) {\n            return false;\n        }\n        if (totalBid > minimumBid) {\n            pendingReturns[bidder] = totalBid;\n            if (totalBid > highestBid) {\n                highestBid = totalBid;\n                highestBidder = bidder;\n            }\n            return true;\n        }\n\n        // THIS FUNCTION IS INCOMPLETE\n    }\n\n    function firstRoundEnd()\n        public\n        onlyAfter(revealEnd)\n        onlyAuctioneer\n        returns (uint256 _minimumBid)\n    {\n        for (uint256 i = 0; i < addresses.length; i++) {\n            if (previousBids[addresses[i]] > highestBid) {\n                highestBid = previousBids[addresses[i]];\n                highestBidder = addresses[i];\n            }\n        }\n        minimumBid = highestBid; // set the minimum bid(for the next round) equal to the highest bid of the current round\n        return minimumBid;\n    }\n\n    function roundEnd() public onlyAfter(revealEnd) onlyAuctioneer {\n        // address[] storage withdrawnUsers;\n        roundNumber++;\n        for (uint256 i = 0; i < addresses.length; i++) {\n            currentRoundBid[addresses[i]] += previousBids[addresses[i]];\n            if (currentRoundBid[addresses[i]] == previousBids[addresses[i]]) {\n                withdrawnUsers.push(addresses[i]);\n            }\n        }\n        for (uint256 i = 0; i < addresses.length; i++) {\n            for (uint256 j = 0; j < withdrawnUsers.length; j++) {\n                if (addresses[i] == withdrawnUsers[j]) {\n                    delete addresses[i]; // this creates empty elements at the deleted places in the array -> work on shifting\n                }\n            }\n        }\n\n        // is called only after the bid reveal process for that round is over\n        minimumBid = highestBid; //the minimum bid for the next round is equal to the highest bid of the just concluded round\n        // find the number of active users - the no. of users who participated in the just concluded round\n\n        // THIS FUNCTION IS INCOMPLETE\n    }\n\n    function withdraw() public onlyNotHighestBidder returns (bool success) {\n        // mention when does it take place wrt the auction rounds\n        address withdrawalAccount;\n        uint256 withdrawalAmount;\n\n        withdrawalAccount = msg.sender;\n        withdrawalAmount = pendingReturns[withdrawalAccount];\n        if (withdrawalAmount > 0) {\n            pendingReturns[withdrawalAccount] = 0;\n            payable(withdrawalAccount).transfer(withdrawalAmount);\n            return true;\n        } else {\n            return false;\n        }\n    }\n\n    function cancelAuction() public onlyNotCancelled onlyAuctioneer {\n        cancelled = true;\n    }\n}\n\n/*\n    function roundOneBid(bytes32 _blindedBid)\n        public\n        payable\n        onlyBefore(biddingEnd)\n    {\n        previousRoundUsersCount++;\n        bids[msg.sender].push(\n            Bid({blindedBid: _blindedBid, deposit: msg.value})\n        );\n        previousBids[msg.sender] = msg.value;\n        addresses.push(msg.sender);\n        bidValues.push(msg.value);\n        previousBids[msg.sender] = msg.value;\n    }\n\n    function futureRoundBid(bytes32 _blindedBid)\n        public\n        payable\n        onlyBefore(biddingEnd)\n    {\n        currentRoundUsersCount++;\n        bids[msg.sender].push(\n            Bid({blindedBid: _blindedBid, deposit: msg.value})\n        );\n        currentRoundBid[msg.sender] = msg.value;\n        /*\n        if (currentRoundBid[msg.sender] == 0) {\n            currentRoundUsersCount--;\n            // find the address of that user in the addresses array, shift it to the last element in the array and pop it out (basically delete that address from the array)\n            for (uint256 i = 0; i < addresses.length; i++) {\n                if (addresses[i] == msg.sender) {\n                    address temp;\n                    temp = addresses[addresses.length - 1];\n                    addresses[addresses.length - 1] = addresses[i];\n                    addresses[i] = temp;\n                    delete addresses[addresses.length - 1];\n                }\n            }\n        }\n        \n    }\n\n    \n}\n*/\n",
  "sourcePath": "/mnt/c/Users/anike/OneDrive/Desktop/UST/SMRA/smra-truffle/contracts/Auction.sol",
  "compiler": {
    "name": "solc",
    "version": "0.8.6+commit.11564f7e.Emscripten.clang"
  },
  "schemaVersion": "3.2.3",
  "updatedAt": "2021-06-28T20:06:18.293Z",
  "networkType": "ethereum",
  "devdoc": {
    "kind": "dev",
    "methods": {},
    "version": 1
  },
  "userdoc": {
    "kind": "user",
    "methods": {},
    "version": 1
  }
}